:020000000328D3
:1000060083160313860183120610861006158611C1
:10001600061286160430FB000C30FC003330FD005F
:10002600FD0B1328FC0B1328FB0B13280000000004
:100036000610861406158611061686120230FB0077
:100046008630FC009930FD00FD0B2728FC0B272885
:10005600FB0B272806148610061186150612861233
:100066000430FB000C30FC003330FD00FD0B39285A
:10007600FC0B3928FB0B39280000000006108614FB
:1000860006118615061686120230FB008630FC0025
:100096009930FD00FD0B4D28FC0B4D28FB0B4D2820
:0400A60006285428AC
:02400E004A2F37
:00000001FF
